{
  "contractName": "Emboss",
  "abi": [
    {
      "inputs": [],
      "stateMutability": "nonpayable",
      "type": "constructor"
    },
    {
      "anonymous": false,
      "inputs": [
        {
          "indexed": true,
          "internalType": "address",
          "name": "_owner",
          "type": "address"
        },
        {
          "indexed": true,
          "internalType": "address",
          "name": "_spender",
          "type": "address"
        },
        {
          "indexed": false,
          "internalType": "uint256",
          "name": "_value",
          "type": "uint256"
        }
      ],
      "name": "Approval",
      "type": "event"
    },
    {
      "anonymous": false,
      "inputs": [
        {
          "indexed": true,
          "internalType": "address",
          "name": "_from",
          "type": "address"
        },
        {
          "indexed": true,
          "internalType": "address",
          "name": "_to",
          "type": "address"
        },
        {
          "indexed": false,
          "internalType": "uint256",
          "name": "_value",
          "type": "uint256"
        }
      ],
      "name": "Transfer",
      "type": "event"
    },
    {
      "inputs": [
        {
          "internalType": "address",
          "name": "",
          "type": "address"
        }
      ],
      "name": "_balanceOf",
      "outputs": [
        {
          "internalType": "uint256",
          "name": "",
          "type": "uint256"
        }
      ],
      "stateMutability": "view",
      "type": "function",
      "constant": true
    },
    {
      "inputs": [],
      "name": "decimals",
      "outputs": [
        {
          "internalType": "uint8",
          "name": "",
          "type": "uint8"
        }
      ],
      "stateMutability": "view",
      "type": "function",
      "constant": true
    },
    {
      "inputs": [],
      "name": "name",
      "outputs": [
        {
          "internalType": "string",
          "name": "",
          "type": "string"
        }
      ],
      "stateMutability": "view",
      "type": "function",
      "constant": true
    },
    {
      "inputs": [],
      "name": "symbol",
      "outputs": [
        {
          "internalType": "string",
          "name": "",
          "type": "string"
        }
      ],
      "stateMutability": "view",
      "type": "function",
      "constant": true
    },
    {
      "inputs": [],
      "name": "totalSupply",
      "outputs": [
        {
          "internalType": "uint256",
          "name": "",
          "type": "uint256"
        }
      ],
      "stateMutability": "view",
      "type": "function",
      "constant": true
    },
    {
      "inputs": [
        {
          "internalType": "address",
          "name": "owner",
          "type": "address"
        }
      ],
      "name": "balanceOf",
      "outputs": [
        {
          "internalType": "uint256",
          "name": "",
          "type": "uint256"
        }
      ],
      "stateMutability": "view",
      "type": "function",
      "constant": true
    },
    {
      "inputs": [
        {
          "internalType": "address",
          "name": "_to",
          "type": "address"
        },
        {
          "internalType": "uint256",
          "name": "_value",
          "type": "uint256"
        }
      ],
      "name": "transfer",
      "outputs": [
        {
          "internalType": "bool",
          "name": "success",
          "type": "bool"
        }
      ],
      "stateMutability": "nonpayable",
      "type": "function"
    },
    {
      "inputs": [
        {
          "internalType": "address",
          "name": "_from",
          "type": "address"
        },
        {
          "internalType": "address",
          "name": "_to",
          "type": "address"
        },
        {
          "internalType": "uint256",
          "name": "_value",
          "type": "uint256"
        }
      ],
      "name": "TransferFrom",
      "outputs": [
        {
          "internalType": "bool",
          "name": "success",
          "type": "bool"
        }
      ],
      "stateMutability": "nonpayable",
      "type": "function"
    },
    {
      "inputs": [
        {
          "internalType": "address",
          "name": "_spender",
          "type": "address"
        },
        {
          "internalType": "uint256",
          "name": "_value",
          "type": "uint256"
        }
      ],
      "name": "approve",
      "outputs": [
        {
          "internalType": "bool",
          "name": "success",
          "type": "bool"
        }
      ],
      "stateMutability": "nonpayable",
      "type": "function"
    },
    {
      "inputs": [
        {
          "internalType": "address",
          "name": "_owner",
          "type": "address"
        },
        {
          "internalType": "address",
          "name": "_spender",
          "type": "address"
        }
      ],
      "name": "allowance",
      "outputs": [
        {
          "internalType": "uint256",
          "name": "",
          "type": "uint256"
        }
      ],
      "stateMutability": "view",
      "type": "function",
      "constant": true
    }
  ],
  "bytecode": "0x60806040526040518060400160405280600681526020017f456d626f7373000000000000000000000000000000000000000000000000000081525060009080519060200190620000519291906200020a565b506040518060400160405280600381526020017f454d4f0000000000000000000000000000000000000000000000000000000000815250600190805190602001906200009f9291906200020a565b506012600260006101000a81548160ff021916908360ff160217905550348015620000c957600080fd5b50620000ea3364e8d4a51000620000f0640100000000026401000000009004565b620003e3565b600073ffffffffffffffffffffffffffffffffffffffff168273ffffffffffffffffffffffffffffffffffffffff1614156200012b57600080fd5b80600360008282546200013f9190620002e8565b9250508190555080600460008473ffffffffffffffffffffffffffffffffffffffff1673ffffffffffffffffffffffffffffffffffffffff1681526020019081526020016000206000828254620001979190620002e8565b925050819055508173ffffffffffffffffffffffffffffffffffffffff16600073ffffffffffffffffffffffffffffffffffffffff167fddf252ad1be2c89b69c2b068fc378daa952ba7f163c4a11628f55a4df523b3ef83604051620001fe9190620002cb565b60405180910390a35050565b82805462000218906200034f565b90600052602060002090601f0160209004810192826200023c576000855562000288565b82601f106200025757805160ff191683800117855562000288565b8280016001018555821562000288579182015b82811115620002875782518255916020019190600101906200026a565b5b5090506200029791906200029b565b5090565b5b80821115620002b65760008160009055506001016200029c565b5090565b620002c58162000345565b82525050565b6000602082019050620002e26000830184620002ba565b92915050565b6000620002f58262000345565b9150620003028362000345565b9250827fffffffffffffffffffffffffffffffffffffffffffffffffffffffffffffffff038211156200033a576200033962000385565b5b828201905092915050565b6000819050919050565b600060028204905060018216806200036857607f821691505b602082108114156200037f576200037e620003b4565b5b50919050565b7f4e487b7100000000000000000000000000000000000000000000000000000000600052601160045260246000fd5b7f4e487b7100000000000000000000000000000000000000000000000000000000600052602260045260246000fd5b610d9380620003f36000396000f3fe608060405234801561001057600080fd5b50600436106100bb576000357c01000000000000000000000000000000000000000000000000000000009004806395d89b411161008357806395d89b411461017a578063a9059cbb14610198578063c0d84ce5146101c8578063cca3e832146101f8578063dd62ed3e14610228576100bb565b806306fdde03146100c0578063095ea7b3146100de57806318160ddd1461010e578063313ce5671461012c57806370a082311461014a575b600080fd5b6100c8610258565b6040516100d59190610b08565b60405180910390f35b6100f860048036038101906100f39190610a4b565b6102e6565b6040516101059190610aed565b60405180910390f35b6101166103d8565b6040516101239190610b2a565b60405180910390f35b6101346103de565b6040516101419190610b45565b60405180910390f35b610164600480360381019061015f9190610997565b6103f1565b6040516101719190610b2a565b60405180910390f35b61018261043a565b60405161018f9190610b08565b60405180910390f35b6101b260048036038101906101ad9190610a4b565b6104c8565b6040516101bf9190610aed565b60405180910390f35b6101e260048036038101906101dd91906109fc565b61063d565b6040516101ef9190610aed565b60405180910390f35b610212600480360381019061020d9190610997565b6108ce565b60405161021f9190610b2a565b60405180910390f35b610242600480360381019061023d91906109c0565b6108e6565b60405161024f9190610b2a565b60405180910390f35b6000805461026590610c8e565b80601f016020809104026020016040519081016040528092919081815260200182805461029190610c8e565b80156102de5780601f106102b3576101008083540402835291602001916102de565b820191906000526020600020905b8154815290600101906020018083116102c157829003601f168201915b505050505081565b600081600560003373ffffffffffffffffffffffffffffffffffffffff1673ffffffffffffffffffffffffffffffffffffffff16815260200190815260200160002060008573ffffffffffffffffffffffffffffffffffffffff1673ffffffffffffffffffffffffffffffffffffffff168152602001908152602001600020819055508273ffffffffffffffffffffffffffffffffffffffff163373ffffffffffffffffffffffffffffffffffffffff167f8c5be1e5ebec7d5bd14f71427d1e84f3dd0314c0f7b2291e5b200ac8c7c3b925846040516103c69190610b2a565b60405180910390a36001905092915050565b60035481565b600260009054906101000a900460ff1681565b6000600460008373ffffffffffffffffffffffffffffffffffffffff1673ffffffffffffffffffffffffffffffffffffffff168152602001908152602001600020549050919050565b6001805461044790610c8e565b80601f016020809104026020016040519081016040528092919081815260200182805461047390610c8e565b80156104c05780601f10610495576101008083540402835291602001916104c0565b820191906000526020600020905b8154815290600101906020018083116104a357829003601f168201915b505050505081565b600081600460003373ffffffffffffffffffffffffffffffffffffffff1673ffffffffffffffffffffffffffffffffffffffff16815260200190815260200160002054101580156105195750600082115b61052257600080fd5b81600460003373ffffffffffffffffffffffffffffffffffffffff1673ffffffffffffffffffffffffffffffffffffffff16815260200190815260200160002060008282546105719190610bd2565b9250508190555081600460008573ffffffffffffffffffffffffffffffffffffffff1673ffffffffffffffffffffffffffffffffffffffff16815260200190815260200160002060008282546105c79190610b7c565b925050819055508273ffffffffffffffffffffffffffffffffffffffff163373ffffffffffffffffffffffffffffffffffffffff167fddf252ad1be2c89b69c2b068fc378daa952ba7f163c4a11628f55a4df523b3ef8460405161062b9190610b2a565b60405180910390a36001905092915050565b600081600460008673ffffffffffffffffffffffffffffffffffffffff1673ffffffffffffffffffffffffffffffffffffffff168152602001908152602001600020541015801561070a575081600560008673ffffffffffffffffffffffffffffffffffffffff1673ffffffffffffffffffffffffffffffffffffffff16815260200190815260200160002060003373ffffffffffffffffffffffffffffffffffffffff1673ffffffffffffffffffffffffffffffffffffffff1681526020019081526020016000205410155b80156107165750600082115b61071f57600080fd5b81600460008573ffffffffffffffffffffffffffffffffffffffff1673ffffffffffffffffffffffffffffffffffffffff168152602001908152602001600020600082825461076e9190610b7c565b9250508190555081600460008673ffffffffffffffffffffffffffffffffffffffff1673ffffffffffffffffffffffffffffffffffffffff16815260200190815260200160002060008282546107c49190610bd2565b9250508190555081600560008673ffffffffffffffffffffffffffffffffffffffff1673ffffffffffffffffffffffffffffffffffffffff16815260200190815260200160002060003373ffffffffffffffffffffffffffffffffffffffff1673ffffffffffffffffffffffffffffffffffffffff16815260200190815260200160002060008282546108579190610bd2565b925050819055508273ffffffffffffffffffffffffffffffffffffffff168473ffffffffffffffffffffffffffffffffffffffff167fddf252ad1be2c89b69c2b068fc378daa952ba7f163c4a11628f55a4df523b3ef846040516108bb9190610b2a565b60405180910390a3600190509392505050565b60046020528060005260406000206000915090505481565b6000600560008473ffffffffffffffffffffffffffffffffffffffff1673ffffffffffffffffffffffffffffffffffffffff16815260200190815260200160002060008373ffffffffffffffffffffffffffffffffffffffff1673ffffffffffffffffffffffffffffffffffffffff16815260200190815260200160002054905092915050565b60008135905061097c81610d2f565b92915050565b60008135905061099181610d46565b92915050565b6000602082840312156109a957600080fd5b60006109b78482850161096d565b91505092915050565b600080604083850312156109d357600080fd5b60006109e18582860161096d565b92505060206109f28582860161096d565b9150509250929050565b600080600060608486031215610a1157600080fd5b6000610a1f8682870161096d565b9350506020610a308682870161096d565b9250506040610a4186828701610982565b9150509250925092565b60008060408385031215610a5e57600080fd5b6000610a6c8582860161096d565b9250506020610a7d85828601610982565b9150509250929050565b610a9081610c18565b82525050565b6000610aa182610b60565b610aab8185610b6b565b9350610abb818560208601610c5b565b610ac481610d1e565b840191505092915050565b610ad881610c44565b82525050565b610ae781610c4e565b82525050565b6000602082019050610b026000830184610a87565b92915050565b60006020820190508181036000830152610b228184610a96565b905092915050565b6000602082019050610b3f6000830184610acf565b92915050565b6000602082019050610b5a6000830184610ade565b92915050565b600081519050919050565b600082825260208201905092915050565b6000610b8782610c44565b9150610b9283610c44565b9250827fffffffffffffffffffffffffffffffffffffffffffffffffffffffffffffffff03821115610bc757610bc6610cc0565b5b828201905092915050565b6000610bdd82610c44565b9150610be883610c44565b925082821015610bfb57610bfa610cc0565b5b828203905092915050565b6000610c1182610c24565b9050919050565b60008115159050919050565b600073ffffffffffffffffffffffffffffffffffffffff82169050919050565b6000819050919050565b600060ff82169050919050565b60005b83811015610c79578082015181840152602081019050610c5e565b83811115610c88576000848401525b50505050565b60006002820490506001821680610ca657607f821691505b60208210811415610cba57610cb9610cef565b5b50919050565b7f4e487b7100000000000000000000000000000000000000000000000000000000600052601160045260246000fd5b7f4e487b7100000000000000000000000000000000000000000000000000000000600052602260045260246000fd5b6000601f19601f8301169050919050565b610d3881610c06565b8114610d4357600080fd5b50565b610d4f81610c44565b8114610d5a57600080fd5b5056fea2646970667358221220ea3ecf363f4f28992650585fe736a9de89157d9d42c1f6f984c5f525e021b95664736f6c63430008000033",
  "immutableReferences": {},
  "source": "// SPDX-License-Identifier: MIT\npragma solidity ^0.8.0;\n\ncontract Emboss{\n\n    constructor(){\n        _mint(msg.sender, 1000000000000);\n    }\n\n    string public name = \"Emboss\";\n    string public symbol = \"EMO\";\n    uint8 public decimals = 18;\n    uint256 public totalSupply;\n\n    mapping(address => uint256) public _balanceOf;\n\n    mapping(address => mapping (address => uint256)) allowed;\n\n    event Transfer(address indexed _from, address indexed _to, uint256 _value);\n\n    event Approval(address indexed _owner, address indexed _spender, uint256 _value);\n\n    \n\n    function balanceOf(address owner) public view returns\n    (uint256){\n        return _balanceOf[owner];\n    }\n\n    function transfer(address _to, uint256 _value) public returns \n    (bool success){\n        require(_balanceOf[msg.sender] >= _value && _value>0);\n        _balanceOf[msg.sender] -= _value;\n        _balanceOf[_to] += _value;\n        emit Transfer(msg.sender, _to, _value);\n        return true;\n    }\n\n    function TransferFrom(address _from, address _to, uint256 _value) public returns\n    (bool success){\n        require(_balanceOf[_from] >= _value && allowed[_from][msg.sender] >= _value && _value >0);\n        _balanceOf[_to] += _value;\n        _balanceOf[_from] -= _value;\n        allowed[_from][msg.sender] -= _value;\n        emit Transfer(_from, _to, _value);\n        return true;\n    }\n\n    function approve(address _spender, uint256 _value) public returns\n    (bool success){\n        allowed[msg.sender][_spender] = _value;\n        emit Approval(msg.sender, _spender, _value);\n        return true;\n    }\n\n    function allowance(address _owner, address _spender ) public view returns\n    (uint256){\n        return allowed[_owner][_spender];\n    }\n\n    function _mint(address account, uint256 amount) internal {\n        require( account != address(0));\n        totalSupply += amount;\n        _balanceOf[account] += amount;\n        emit Transfer(address(0), account, amount);\n    }\n\n    function _burn(address account, uint256 amount) internal {\n        require(account != address(0));\n        require(amount <= _balanceOf[account]);\n\n        totalSupply = totalSupply - amount;\n        _balanceOf[account] = _balanceOf[account] - amount;\n        emit Transfer(account, address(0), amount);\n  }\n\n}",
  "sourcePath": "/home/420.801.K7/Projects/Blockchain-Starter/ERC20FixedSupply/contracts/ERC20FixedSupply.sol",
  "compiler": {
    "name": "solc",
    "version": "0.8.0+commit.c7dfd78e.Linux.g++"
  },
  "schemaVersion": "3.4.10",
  "updatedAt": "2022-12-03T11:51:02.906Z",
  "networkType": "ethereum",
  "devdoc": {
    "kind": "dev",
    "methods": {},
    "version": 1
  },
  "userdoc": {
    "kind": "user",
    "methods": {},
    "version": 1
  }
}